:100000001EC036C035C034C033C032C031C030C06D
:100010002FC02EC02DC02CC03EC02AC029C028C071
:1000200027C026C025C0D3C043C147C14CC151C160
:1000300056C15BC160C167C16DC173C1A9C1112443
:100040001FBECFEDCDBF10E0A0E6B0E0E4ECF4E0E1
:1000500002C005900D92A236B107D9F710E0A2E6D2
:10006000B0E001C01D92AD36B107E1F73CD028C227
:10007000C7CF82E08BB912B889EB89B988E18AB918
:1000800086E083B908955D9BFECF8CB908955F9B90
:10009000FECF8CB108951F920F920FB60F921124CC
:1000A0008F939F93EF93FF9390916200E5E6F0E0CA
:1000B0009A9551F08191939A93988A95C9F300008B
:1000C000000000000000C9F70000939A939889B7D8
:1000D0008F7D89BFFF91EF919F918F910F900FBE00
:1000E0000F901F9018952F923F924F925F926F92B0
:1000F0007F928F929F92AF92BF92CF92DF92EF92B8
:10010000FF920F931F93CF93DF9382E08BB912B8C6
:1001100089EB89B988E18AB986E083B98FED81BB23
:1001200087B38F6287BB83E880BF81E083BF9498E9
:10013000C5985D9BFECF88E48CB95D9BFECF85E4BE
:100140008CB95D9BFECF8CE48CB95D9BFECF8CE4BB
:100150008CB95D9BFECF8FE48CB95D9BFECF81E2B5
:100160008CB95D9BFECF80E28CB940E237E5432E2F
:10017000A2E76FE67EE627E6322E19E693E7292E00
:10018000B4E785E7982E03E6802EFBE07F2EE7E0BC
:10019000AE2E51ECC52E55E4D52EC5E6D1E0FF2498
:1001A000F3943AE0632E2EE4522E0DE690E7B92E3A
:1001B0008CE6E82E55E65F9BFECF8CB1E82FF0E091
:1001C000EC30F10508F042C1ED5EFF4F09945D9BF4
:1001D000FECF1CB85D9BFECF4CB95D9BFECF85E585
:1001E0008CB95D9BFECF7CB95D9BFECFECB85D9B6F
:1001F000FECF6CB95D9BFECF6CB95D9BFECFBCB8EA
:100200005D9BFECF5CB95D9BFECFACB95D9BFECF25
:100210004CB95D9BFECF86E78CB95D9BFECF82E338
:100220008CB95D9BFECF4CB95D9BFECF88E28CB94B
:100230005D9BFECF8DE48CB95D9BFECF83E58CB9D1
:100240005D9BFECF89E28CB95D9BFECF4CB95D9B77
:10025000FECF86E68CB95D9BFECF1CB95D9BFECFC1
:10026000ACB95D9BFECF0CB95D9BFECF87E78CB927
:100270005D9BFECF81E68CB95D9BFECFACB95D9BEB
:10028000FECF5CB95D9BFECF4CB95D9BFECF86E790
:100290008CB95D9BFECF81E38CB95D9BFECF8EE276
:1002A0008CB95D9BFECF81E38CB95D9BFECF06C10F
:1002B0005D9BFECFFCB8929A7ECF5D9BFECF82E025
:1002C0008CB9929878CF5D9BFECF83E08CB9C598AE
:1002D00072CF5D9BFECF84E08CB9C59A6CCF5D9BDD
:1002E000FECF85E08CB9C39A66CF5D9BFECF86E0DA
:1002F0008CB9C39860CF5D9BFECFACB85F9BFECF3F
:100300008CB186BF58CF5D9BFECF88E08CB9F09250
:10031000600051CF5D9BFECF89E08CB910926000E8
:100320004ACF5D9BFECF6CB85D9BFECF4CB95D9B09
:10033000FECF5CB85D9BFECF6CB95D9BFECFBCB9B8
:100340005D9BFECF4CB95D9BFECF1CB95D9BFECF84
:100350000CB95D9BFECFBCB85D9BFECFECB85D9B3E
:10036000FECF5CB95D9BFECF0CB95D9BFECF5CB947
:100370005D9BFECF7CB95D9BFECFBCB95D9BFECF84
:100380005CB95D9BFECF84E68CB95D9BFECF96C0C9
:100390005D9BFECF7CB8C09A5F9BFECF8CB18093F3
:1003A000620080916200882321F080916200843095
:1003B00010F0F09262005F9BFECF8CB180936300DF
:1003C00021E030E00FC05F9BFECF8CB1F901ED5909
:1003D000FF4F80838081882319F480818F5F808321
:1003E0002F5F3F4F8091620090E0821793075CF788
:1003F0001DBC1CBCC39A80916000882361F0C59825
:10040000C6010197F1F7C59A84EF91E0FE0131979B
:10041000F1F70197D9F78091630089BD809164005D
:1004200088BD85B7806285BF89B7806289BF7894AF
:10043000809162008F5F80936200AEBC889585B723
:100440008F7D85BFF8941EBCC098B5CE5D9BFECF56
:100450004CB95D9BFECF4CB85D9BFECFACB95D9BAC
:10046000FECF6CB95D9BFECF7CB95D9BFECF3CB8E7
:100470005D9BFECF4CB95D9BFECF1CB95D9BFECF53
:100480007CB95D9BFECF2CB85D9BFECFBCB95D9B5C
:10049000FECFACB95D9BFECF9CB85D9BFECF8CB808
:1004A0005D9BFECFBCB95D9BFECF1CB95D9BFECFB3
:1004B0006CB95D9BFECF7CB95D9BFECF4CB97BCE0A
:0404C000F894FFCFDE
:0204C400010035
:00000001FF
